{
    "address": "0x0165878A594ca255338adfa4d48449f69242Eb8F",
    "abi": [
        {
            "inputs": [
                {
                    "internalType": "address",
                    "name": "_treasury",
                    "type": "address"
                },
                {
                    "internalType": "address",
                    "name": "_government",
                    "type": "address"
                },
                {
                    "internalType": "address",
                    "name": "_usdc",
                    "type": "address"
                },
                {
                    "internalType": "address",
                    "name": "_comet",
                    "type": "address"
                }
            ],
            "stateMutability": "nonpayable",
            "type": "constructor"
        },
        {
            "inputs": [
                {
                    "internalType": "address",
                    "name": "token",
                    "type": "address"
                }
            ],
            "name": "SafeERC20FailedOperation",
            "type": "error"
        },
        {
            "anonymous": false,
            "inputs": [
                {
                    "indexed": false,
                    "internalType": "address",
                    "name": "oldComet",
                    "type": "address"
                },
                {
                    "indexed": false,
                    "internalType": "address",
                    "name": "newComet",
                    "type": "address"
                }
            ],
            "name": "CometChanged",
            "type": "event"
        },
        {
            "anonymous": false,
            "inputs": [
                {
                    "indexed": false,
                    "internalType": "uint256",
                    "name": "amount",
                    "type": "uint256"
                }
            ],
            "name": "Deposited",
            "type": "event"
        },
        {
            "anonymous": false,
            "inputs": [
                {
                    "indexed": false,
                    "internalType": "address",
                    "name": "oldGovernment",
                    "type": "address"
                },
                {
                    "indexed": false,
                    "internalType": "address",
                    "name": "newGovernment",
                    "type": "address"
                }
            ],
            "name": "GovernmentChanged",
            "type": "event"
        },
        {
            "anonymous": false,
            "inputs": [
                {
                    "indexed": false,
                    "internalType": "uint256",
                    "name": "amount",
                    "type": "uint256"
                }
            ],
            "name": "Withdrawn",
            "type": "event"
        },
        {
            "inputs": [
                {
                    "internalType": "address",
                    "name": "_comet",
                    "type": "address"
                }
            ],
            "name": "changeComet",
            "outputs": [],
            "stateMutability": "nonpayable",
            "type": "function"
        },
        {
            "inputs": [
                {
                    "internalType": "address",
                    "name": "_government",
                    "type": "address"
                }
            ],
            "name": "changeGovernment",
            "outputs": [],
            "stateMutability": "nonpayable",
            "type": "function"
        },
        {
            "inputs": [],
            "name": "comet",
            "outputs": [
                {
                    "internalType": "address",
                    "name": "",
                    "type": "address"
                }
            ],
            "stateMutability": "view",
            "type": "function"
        },
        {
            "inputs": [
                {
                    "internalType": "bytes",
                    "name": "",
                    "type": "bytes"
                }
            ],
            "name": "deposit",
            "outputs": [],
            "stateMutability": "nonpayable",
            "type": "function"
        },
        {
            "inputs": [],
            "name": "getTotalValue",
            "outputs": [
                {
                    "internalType": "uint256",
                    "name": "",
                    "type": "uint256"
                }
            ],
            "stateMutability": "view",
            "type": "function"
        },
        {
            "inputs": [
                {
                    "internalType": "address[]",
                    "name": "target",
                    "type": "address[]"
                },
                {
                    "internalType": "uint256[]",
                    "name": "value",
                    "type": "uint256[]"
                },
                {
                    "internalType": "bytes[]",
                    "name": "data",
                    "type": "bytes[]"
                }
            ],
            "name": "gorvermentExec",
            "outputs": [],
            "stateMutability": "nonpayable",
            "type": "function"
        },
        {
            "inputs": [],
            "name": "government",
            "outputs": [
                {
                    "internalType": "address",
                    "name": "",
                    "type": "address"
                }
            ],
            "stateMutability": "view",
            "type": "function"
        },
        {
            "inputs": [],
            "name": "treasury",
            "outputs": [
                {
                    "internalType": "address",
                    "name": "",
                    "type": "address"
                }
            ],
            "stateMutability": "view",
            "type": "function"
        },
        {
            "inputs": [],
            "name": "usdc",
            "outputs": [
                {
                    "internalType": "address",
                    "name": "",
                    "type": "address"
                }
            ],
            "stateMutability": "view",
            "type": "function"
        },
        {
            "inputs": [
                {
                    "internalType": "uint256",
                    "name": "amount",
                    "type": "uint256"
                },
                {
                    "internalType": "bytes",
                    "name": "",
                    "type": "bytes"
                }
            ],
            "name": "withdraw",
            "outputs": [],
            "stateMutability": "nonpayable",
            "type": "function"
        },
        {
            "inputs": [
                {
                    "internalType": "bytes",
                    "name": "",
                    "type": "bytes"
                }
            ],
            "name": "withdraw",
            "outputs": [],
            "stateMutability": "nonpayable",
            "type": "function"
        }
    ],
    "transactionHash": "0x5b9def9e85e39aa88e6cd6b2ef56fe0fff4072888244bbfa3cf31c3a3665183b",
    "args": [
        "0xDc64a140Aa3E981100a9becA4E685f962f0cF6C9",
        "0x3C44CdDdB6a900fa2b585dd299e03d12FA4293BC",
        "0x5FbDB2315678afecb367f032d93F642f64180aa3",
        "0x9fE46736679d2D9a65F0992F2272dE9f3c7fa6e0"
    ],
    "numDeployments": 1,
    "solcInputHash": "68dfe69a038f4e3657e0a9a025280637",
    "bytecode": "0x6080346100b957601f610e0438819003918201601f19168301916001600160401b038311848410176100be578084926080946040528339810103126100b957610047816100d4565b90610054602082016100d4565b61006c6060610065604085016100d4565b93016100d4565b9060018060a01b03928380928160018060a01b03199716876001541617600155168560025416176002551683600054161760005516906003541617600355604051610d1b90816100e98239f35b600080fd5b634e487b7160e01b600052604160045260246000fd5b51906001600160a01b03821682036100b95756fe6080604052600436101561001257600080fd5b60003560e01c8063030ba25d146100c75780630968f264146100c25780632672f526146100bd5780633e413bee146100b85780635b58a289146100b357806361d027b3146100ae5780636844a2e9146100a957806398b1e06a146100a4578063ba3e9c121461009f578063c58f7c311461009a5763caa648b41461009557600080fd5b6109cb565b610937565b61090e565b610736565b6106a6565b61066c565b61056a565b610510565b6104e7565b610327565b610187565b634e487b7160e01b600052604160045260246000fd5b67ffffffffffffffff81116100f657604052565b6100cc565b90601f8019910116810190811067ffffffffffffffff8211176100f657604052565b92919267ffffffffffffffff82116100f65760405191610147601f8201601f1916602001846100fb565b829481845281830111610164578281602093846000960137010152565b600080fd5b9080601f83011215610164578160206101849335910161011d565b90565b346101645760403660031901126101645760043560243567ffffffffffffffff8111610164576101bb903690600401610169565b506101d160018060a01b03600154163314610ab5565b6003546101f4906101e8906001600160a01b031681565b6001600160a01b031690565b6040516370a0823160e01b8152306004820152909190602081602481865afa80156102c85761022d916000916102cd575b501515610b09565b6000546001600160a01b031691803b156101645760405163f3fef3a360e01b81526001600160a01b03939093166004840152602483018290526000908390604490829084905af19182156102c8576102ad926102af575b5060005461029a906001600160a01b03166101e8565b6001546001600160a01b03165b90610c2e565b005b806102bc6102c2926100e2565b806104dc565b38610284565b610afd565b6102ef915060203d6020116102f5575b6102e781836100fb565b810190610aee565b38610225565b503d6102dd565b6020600319820112610164576004359067ffffffffffffffff82116101645761018491600401610169565b3461016457610335366102fc565b506001546001600160a01b039061034f9082163314610ab5565b600354610366906101e8906001600160a01b031681565b6040516370a0823160e01b80825230600483015260209290918381602481855afa9081156102c8576000916104bf575b506103a2811515610b09565b6000546001600160a01b031690823b156101645760405163f3fef3a360e01b81526001600160a01b039290921660048301526024820152906000908290604490829084905af180156102c8576104ac575b50600054829061040b906001600160a01b03166101e8565b60405192835230600484015291938490602490829085165afa9081156102c8577f430648de173157e069201c943adb2d4e340e7cf5b27b1b09c9cb852f03d63b569361048293600093610487575b50506001546104729183916001600160a01b03166102a7565b6040519081529081906020820190565b0390a1005b61047292935090816104a492903d106102f5576102e781836100fb565b919038610459565b806102bc6104b9926100e2565b386103f3565b6104d69150843d86116102f5576102e781836100fb565b38610396565b600091031261016457565b34610164576000366003190112610164576002546040516001600160a01b039091168152602090f35b34610164576000366003190112610164576000546040516001600160a01b039091168152602090f35b9181601f840112156101645782359167ffffffffffffffff8311610164576020808501948460051b01011161016457565b346101645760603660031901126101645767ffffffffffffffff6004358181116101645761059c903690600401610539565b602435838111610164576105b4903690600401610539565b92604435858111610164576105cd903690600401610539565b9390916105e560018060a01b03600254163314610b4e565b60005b8281106105f157005b6105fc818484610ba2565b359061060782610695565b610612818988610ba2565b3587821015610667578160051b860135601e1987360301811215610164578601928335938b8511610164576020019184360383136101645761065b61066193600196369161011d565b91610cc1565b016105e8565b610b8c565b34610164576000366003190112610164576001546040516001600160a01b039091168152602090f35b6001600160a01b0381160361016457565b34610164576020366003190112610164577fd220bce19af917092091d2523c144f080a8bf6225a4da549d0c689f9f87cd09f6004356106e481610695565b6002546001600160a01b0380821691906106ff338414610b4e565b6001600160a01b031990911690831617600255604080516001600160a01b0392831681529190921660208201529081908101610482565b3461016457610744366102fc565b5061075a60018060a01b03600154163314610ab5565b60008054610772906101e8906001600160a01b031681565b6040516370a0823160e01b8152306004820152906020908183602481845afa9283156102c85784936108e9575b5081836107eb926107b1821515610bb2565b60035460405163095ea7b360e01b81526001600160a01b039091166004820152602481019290925290928391908290889082906044820190565b03925af180156102c8576108bb575b5050600354610813906101e8906001600160a01b031681565b825490919083906001600160a01b0316833b156108b757604051631e573fb760e31b81526001600160a01b0391909116600482015260248101839052928390604490829084905af19081156102c8577f2a89b2e3d580398d6dc2db5e0f336b52602bbaa51afa9bb5cdf59239cf0d2bea9261089e926108a4575b506040519081529081906020820190565b0390a180f35b806102bc6108b1926100e2565b3861088d565b5080fd5b816108da92903d106108e2575b6108d281836100fb565b810190610bf3565b5038806107fa565b503d6108c8565b6107eb9193506109068391823d84116102f5576102e781836100fb565b93915061079f565b34610164576000366003190112610164576003546040516001600160a01b039091168152602090f35b34610164576020366003190112610164577f3b9ed6bfb2e151624850a1a8fe771337bfb0ad1a05f5d25c83f90029997a15eb60043561097581610695565b6002546001600160a01b03919061098f9083163314610b4e565b600380548284166001600160a01b031982161790915560408051939091166001600160a01b039081168452909116602083015281908101610482565b3461016457600080600319360112610ab25780546109f3906101e8906001600160a01b031681565b6040516370a0823160e01b808252306004830152602093929091908490829060249082905afa9081156102c8578391610a95575b506003548490610a41906101e8906001600160a01b031681565b604051938452306004850152839060249082905afa9182156102c857610a72946104729493610a76575b5050610c0b565b0390f35b610a8d929350803d106102f5576102e781836100fb565b903880610a6b565b610aac9150843d86116102f5576102e781836100fb565b38610a27565b80fd5b15610abc57565b60405162461bcd60e51b815260206004820152600a60248201526913db9b1e481859d95b9d60b21b6044820152606490fd5b90816020910312610164575190565b6040513d6000823e3d90fd5b15610b1057565b60405162461bcd60e51b81526020600482015260166024820152754e6f2062616c616e636520746f20776974686472617760501b6044820152606490fd5b15610b5557565b60405162461bcd60e51b815260206004820152600f60248201526e4f6e6c7920676f7665726e616e636560881b6044820152606490fd5b634e487b7160e01b600052603260045260246000fd5b91908110156106675760051b0190565b15610bb957565b60405162461bcd60e51b8152602060048201526012602482015271139bc81554d110c81d1bc819195c1bdcda5d60721b6044820152606490fd5b90816020910312610164575180151581036101645790565b91908201809211610c1857565b634e487b7160e01b600052601160045260246000fd5b60405163a9059cbb60e01b60208083019182526001600160a01b039490941660248301526044808301959095529381529092600091610c6e6064826100fb565b519082855af115610afd576000513d610cb857506001600160a01b0381163b155b610c965750565b604051635274afe760e01b81526001600160a01b039091166004820152602490fd5b60011415610c8f565b916000928392602083519301915af1604051903d6000833e15610ce15750565b3d90fdfea26469706673582212209728d380965c5058fe4d83fec5f2346109b80296999d67a9027ffd891050661164736f6c63430008180033",
    "devdoc": {
        "errors": {
            "SafeERC20FailedOperation(address)": [
                {
                    "details": "An operation with an ERC-20 token failed."
                }
            ]
        },
        "kind": "dev",
        "methods": {},
        "version": 1
    },
    "userdoc": {
        "kind": "user",
        "methods": {},
        "version": 1
    },
    "storageLayout": {
        "storage": [
            {
                "astId": 5985,
                "contract": "contracts/modules/CompoundV3USDC/CompoundV3StakingUSDCModules.sol:CompoundV3StakingUSDCModule",
                "label": "usdc",
                "offset": 0,
                "slot": "0",
                "type": "t_address"
            },
            {
                "astId": 5987,
                "contract": "contracts/modules/CompoundV3USDC/CompoundV3StakingUSDCModules.sol:CompoundV3StakingUSDCModule",
                "label": "treasury",
                "offset": 0,
                "slot": "1",
                "type": "t_address"
            },
            {
                "astId": 5989,
                "contract": "contracts/modules/CompoundV3USDC/CompoundV3StakingUSDCModules.sol:CompoundV3StakingUSDCModule",
                "label": "government",
                "offset": 0,
                "slot": "2",
                "type": "t_address"
            },
            {
                "astId": 5991,
                "contract": "contracts/modules/CompoundV3USDC/CompoundV3StakingUSDCModules.sol:CompoundV3StakingUSDCModule",
                "label": "comet",
                "offset": 0,
                "slot": "3",
                "type": "t_address"
            }
        ],
        "types": {
            "t_address": {
                "encoding": "inplace",
                "label": "address",
                "numberOfBytes": "20"
            }
        }
    }
}