{
    "address": "0x5FC8d32690cc91D4c39d9d3abcBD16989F875707",
    "abi": [
        {
            "inputs": [
                {
                    "internalType": "address",
                    "name": "_government",
                    "type": "address"
                },
                {
                    "internalType": "address",
                    "name": "_agent",
                    "type": "address"
                },
                {
                    "internalType": "address",
                    "name": "_usdc",
                    "type": "address"
                },
                {
                    "internalType": "address",
                    "name": "_comet",
                    "type": "address"
                }
            ],
            "stateMutability": "nonpayable",
            "type": "constructor"
        },
        {
            "inputs": [],
            "name": "EnforcedPause",
            "type": "error"
        },
        {
            "inputs": [],
            "name": "ExpectedPause",
            "type": "error"
        },
        {
            "inputs": [
                {
                    "internalType": "address",
                    "name": "token",
                    "type": "address"
                }
            ],
            "name": "SafeERC20FailedOperation",
            "type": "error"
        },
        {
            "anonymous": false,
            "inputs": [
                {
                    "indexed": false,
                    "internalType": "address",
                    "name": "oldAgent",
                    "type": "address"
                },
                {
                    "indexed": false,
                    "internalType": "address",
                    "name": "newAgent",
                    "type": "address"
                }
            ],
            "name": "AgentChanged",
            "type": "event"
        },
        {
            "anonymous": false,
            "inputs": [
                {
                    "indexed": false,
                    "internalType": "address",
                    "name": "oldComet",
                    "type": "address"
                },
                {
                    "indexed": false,
                    "internalType": "address",
                    "name": "newComet",
                    "type": "address"
                }
            ],
            "name": "CometChanged",
            "type": "event"
        },
        {
            "anonymous": false,
            "inputs": [
                {
                    "indexed": false,
                    "internalType": "uint256",
                    "name": "amount",
                    "type": "uint256"
                }
            ],
            "name": "Deposited",
            "type": "event"
        },
        {
            "anonymous": false,
            "inputs": [
                {
                    "indexed": false,
                    "internalType": "address",
                    "name": "oldGovernance",
                    "type": "address"
                },
                {
                    "indexed": false,
                    "internalType": "address",
                    "name": "newGovernance",
                    "type": "address"
                }
            ],
            "name": "GovernanceChanged",
            "type": "event"
        },
        {
            "anonymous": false,
            "inputs": [
                {
                    "indexed": false,
                    "internalType": "address",
                    "name": "oldGovernment",
                    "type": "address"
                },
                {
                    "indexed": false,
                    "internalType": "address",
                    "name": "newGovernment",
                    "type": "address"
                }
            ],
            "name": "GovernmentChanged",
            "type": "event"
        },
        {
            "anonymous": false,
            "inputs": [
                {
                    "indexed": false,
                    "internalType": "address",
                    "name": "account",
                    "type": "address"
                }
            ],
            "name": "Paused",
            "type": "event"
        },
        {
            "anonymous": false,
            "inputs": [
                {
                    "indexed": false,
                    "internalType": "address",
                    "name": "account",
                    "type": "address"
                }
            ],
            "name": "Unpaused",
            "type": "event"
        },
        {
            "anonymous": false,
            "inputs": [
                {
                    "indexed": false,
                    "internalType": "uint256",
                    "name": "amount",
                    "type": "uint256"
                }
            ],
            "name": "Withdrawn",
            "type": "event"
        },
        {
            "inputs": [],
            "name": "agent",
            "outputs": [
                {
                    "internalType": "address",
                    "name": "",
                    "type": "address"
                }
            ],
            "stateMutability": "view",
            "type": "function"
        },
        {
            "inputs": [
                {
                    "internalType": "uint256",
                    "name": "amount",
                    "type": "uint256"
                },
                {
                    "internalType": "address",
                    "name": "txnBridgeAllowanceTo",
                    "type": "address"
                },
                {
                    "internalType": "address",
                    "name": "txnBridgeTo",
                    "type": "address"
                },
                {
                    "internalType": "bytes",
                    "name": "txnBridgeData",
                    "type": "bytes"
                }
            ],
            "name": "bridge",
            "outputs": [],
            "stateMutability": "nonpayable",
            "type": "function"
        },
        {
            "inputs": [
                {
                    "internalType": "address",
                    "name": "txnBridgeAllowanceTo",
                    "type": "address"
                },
                {
                    "internalType": "address",
                    "name": "txnBridgeTo",
                    "type": "address"
                },
                {
                    "internalType": "bytes",
                    "name": "txnBridgeData",
                    "type": "bytes"
                }
            ],
            "name": "bridgeAll",
            "outputs": [],
            "stateMutability": "nonpayable",
            "type": "function"
        },
        {
            "inputs": [
                {
                    "internalType": "address",
                    "name": "_agent",
                    "type": "address"
                }
            ],
            "name": "changeAgent",
            "outputs": [],
            "stateMutability": "nonpayable",
            "type": "function"
        },
        {
            "inputs": [
                {
                    "internalType": "address",
                    "name": "_governance",
                    "type": "address"
                }
            ],
            "name": "changeGovernance",
            "outputs": [],
            "stateMutability": "nonpayable",
            "type": "function"
        },
        {
            "inputs": [],
            "name": "comet",
            "outputs": [
                {
                    "internalType": "address",
                    "name": "",
                    "type": "address"
                }
            ],
            "stateMutability": "view",
            "type": "function"
        },
        {
            "inputs": [],
            "name": "deposit",
            "outputs": [],
            "stateMutability": "nonpayable",
            "type": "function"
        },
        {
            "inputs": [],
            "name": "getTotalValue",
            "outputs": [
                {
                    "internalType": "uint256",
                    "name": "",
                    "type": "uint256"
                }
            ],
            "stateMutability": "view",
            "type": "function"
        },
        {
            "inputs": [],
            "name": "governance",
            "outputs": [
                {
                    "internalType": "address",
                    "name": "",
                    "type": "address"
                }
            ],
            "stateMutability": "view",
            "type": "function"
        },
        {
            "inputs": [
                {
                    "internalType": "address[]",
                    "name": "target",
                    "type": "address[]"
                },
                {
                    "internalType": "uint256[]",
                    "name": "value",
                    "type": "uint256[]"
                },
                {
                    "internalType": "bytes[]",
                    "name": "data",
                    "type": "bytes[]"
                }
            ],
            "name": "governanceExec",
            "outputs": [],
            "stateMutability": "nonpayable",
            "type": "function"
        },
        {
            "inputs": [],
            "name": "paused",
            "outputs": [
                {
                    "internalType": "bool",
                    "name": "",
                    "type": "bool"
                }
            ],
            "stateMutability": "view",
            "type": "function"
        },
        {
            "inputs": [
                {
                    "internalType": "address",
                    "name": "to",
                    "type": "address"
                },
                {
                    "internalType": "uint256",
                    "name": "amount",
                    "type": "uint256"
                }
            ],
            "name": "transfer",
            "outputs": [],
            "stateMutability": "nonpayable",
            "type": "function"
        },
        {
            "inputs": [],
            "name": "usdc",
            "outputs": [
                {
                    "internalType": "address",
                    "name": "",
                    "type": "address"
                }
            ],
            "stateMutability": "view",
            "type": "function"
        }
    ],
    "transactionHash": "0x765f8f89078838df421abae2761bc0ba224e3a611edbf83c53b55afa327fb1b0",
    "args": [
        "0x3C44CdDdB6a900fa2b585dd299e03d12FA4293BC",
        "0x70997970C51812dc3A010C7d01b50e0d17dc79C8",
        "0x5FbDB2315678afecb367f032d93F642f64180aa3",
        "0x9fE46736679d2D9a65F0992F2272dE9f3c7fa6e0"
    ],
    "numDeployments": 1,
    "solcInputHash": "2025e3415b210d74778c3bb763a2ab5e",
    "bytecode": "0x6080346100cd57601f61104638819003918201601f19168301916001600160401b038311848410176100d2578084926080946040528339810103126100cd57610047816100e8565b90610054602082016100e8565b61006c6060610065604085016100e8565b93016100e8565b9060005490610100600160a81b039060081b169060018060a81b0319161760005560018060a01b0380928160018060a01b031995168560015416176001551683600254161760025516906003541617600355604051610f4990816100fd8239f35b600080fd5b634e487b7160e01b600052604160045260246000fd5b51906001600160a01b03821682036100cd5756fe6080604052600436101561001257600080fd5b60003560e01c806315635fb6146100e75780633e413bee146100e257806357f032e7146100dd5780635aa6e675146100d85780635c975abb146100d357806378499054146100ce57806399572d6f146100c9578063a9059cbb146100c4578063aebac966146100bf578063ba3e9c12146100ba578063caa648b4146100b5578063d0e30db0146100b05763f5ff5c76146100ab57600080fd5b610c96565b610ad0565b6109e8565b6109bf565b61074a565b61067f565b6105ef565b610415565b61033c565b610313565b61026b565b610231565b610122565b9181601f8401121561011d5782359167ffffffffffffffff831161011d576020808501948460051b01011161011d57565b600080fd5b3461011d57606036600319011261011d5767ffffffffffffffff60043581811161011d576101549036906004016100ec565b909160243581811161011d5761016e9036906004016100ec565b9260443583811161011d576101879036906004016100ec565b916001966101a060018060a01b03600154163314610cc3565b60005b8281106101ac57005b6101b7818484610d17565b35906101c28261025a565b6101cd818a89610d17565b3586821015610221578160051b860135601e198736030181121561011d578601928335938a851161011d5760200191843603831361011d5761021561021b938e9636916103b0565b91610e60565b016101a3565b610d01565b600091031261011d57565b3461011d57600036600319011261011d576002546040516001600160a01b039091168152602090f35b6001600160a01b0381160361011d57565b3461011d57602036600319011261011d577fb21f1bf0d206b43eb02be4f423c2788a95affbda226125eaecabe3def8ba5c426004356102a98161025a565b6001546001600160a01b0391906102c39083163314610cc3565b60008054610100600160a81b03198116600884811b610100600160a81b031691909117909255604080516001600160a01b039290931c90941681168252909116602082015290819081015b0390a1005b3461011d57600036600319011261011d576001546040516001600160a01b039091168152602090f35b3461011d57600036600319011261011d57602060ff600054166040519015158152f35b634e487b7160e01b600052604160045260246000fd5b67ffffffffffffffff811161038957604052565b61035f565b90601f8019910116810190811067ffffffffffffffff82111761038957604052565b92919267ffffffffffffffff821161038957604051916103da601f8201601f19166020018461038e565b82948184528183011161011d578281602093846000960137010152565b9080601f8301121561011d57816020610412933591016103b0565b90565b3461011d57608036600319011261011d576004356024356104358161025a565b604435906104428261025a565b60643567ffffffffffffffff811161011d576104629036906004016103f7565b9260009361047d60018060a01b03865460081c163314610d27565b6003546104a090610494906001600160a01b031681565b6001600160a01b031690565b60025486906001600160a01b0316823b156105eb5760405163f3fef3a360e01b81526001600160a01b0391909116600482015260248101859052918290604490829084905af180156105cd576105489460209285926105d2575b5060025461051290610494906001600160a01b031681565b60405163095ea7b360e01b81526001600160a01b0390921660048301526024820192909252948591908290899082906044820190565b03925af19081156105cd577f430648de173157e069201c943adb2d4e340e7cf5b27b1b09c9cb852f03d63b5694610598946105889361059e575b50610e3c565b6040519081529081906020820190565b0390a180f35b6105bf9060203d6020116105c6575b6105b7818361038e565b810190610d6c565b5038610582565b503d6105ad565b610d60565b806105df6105e592610375565b80610226565b386104fa565b5080fd5b3461011d57602036600319011261011d577f3aaaebeb4821d6a7e5c77ece53cff0afcc56c82add2c978dbbb7f73e84cbcfd260043561062d8161025a565b6001546001600160a01b038082169190610648338414610cc3565b6001600160a01b031990911690831617600155604080516001600160a01b039283168152919092166020820152908190810161030e565b3461011d57604036600319011261011d5760043561069c8161025a565b6024359060018060a01b03916000926106bc81855460081c163314610d27565b6003546002549116929084906001600160a01b0316843b156105eb5760405163f3fef3a360e01b81526001600160a01b0391909116600482015260248101849052938490604490829084905af19283156105cd5761073493610737575b5060025461072f906001600160a01b0316610494565b610e80565b80f35b806105df61074492610375565b38610719565b3461011d57606036600319011261011d5760048035906107698261025a565b602435916107768361025a565b60443567ffffffffffffffff811161011d5761079590369084016103f7565b9060009360ff85546107b360018060a01b038260081c163314610d27565b166109ae576003546107cf90610494906001600160a01b031681565b6040516370a0823160e01b8082523087830190815260209791969391929088908290819083010381855afa80156105cd5789918291610991575b50610815811515610d93565b6002546001600160a01b031692803b1561098d576040805163f3fef3a360e01b81526001600160a01b03909516868601908152602081019390935284928391859183910103925af180156105cd5761097a575b5060025461088090610494906001600160a01b031681565b604051958652308287019081528790879081906020010381845afa9485156105cd578888936108e6988298610945575b506040805163095ea7b360e01b81526001600160a01b039094169184019182526020820189905292988994938593928492910190565b03925af19182156105cd577f430648de173157e069201c943adb2d4e340e7cf5b27b1b09c9cb852f03d63b56956105989561058894610927575b5050610e3c565b8161093d92903d106105c6576105b7818361038e565b503880610920565b610969919493929850853d8711610973575b610961818361038e565b810190610d84565b96909192386108b0565b503d610957565b806105df61098792610375565b38610868565b8280fd5b6109a89150893d8b1161097357610961818361038e565b38610809565b60405163d93c066560e01b81528490fd5b3461011d57600036600319011261011d576003546040516001600160a01b039091168152602090f35b3461011d57600036600319011261011d57600254610a1090610494906001600160a01b031681565b6040516370a0823160e01b80825230600483015291602091908290829060249082905afa9081156105cd57600091610ab3575b506003548290610a5d90610494906001600160a01b031681565b604051948552306004860152849060249082905afa9081156105cd57610a909361058893600093610a94575b5050610dd8565b0390f35b610aab929350803d1061097357610961818361038e565b903880610a89565b610aca9150823d841161097357610961818361038e565b38610a43565b3461011d57600080600319360112610c9357610af960018060a01b03825460081c163314610d27565b600254610b1090610494906001600160a01b031681565b6040516370a0823160e01b8152306004820152906020908183602481845afa9283156105cd578493610c6e575b508183610b8992610b4f821515610dfb565b60035460405163095ea7b360e01b81526001600160a01b039091166004820152602481019290925290928391908290889082906044820190565b03925af180156105cd57610c50575b5050600354610bb190610494906001600160a01b031681565b60025490919083906001600160a01b0316833b156105eb57604051631e573fb760e31b81526001600160a01b0391909116600482015260248101839052928390604490829084905af19081156105cd577f2a89b2e3d580398d6dc2db5e0f336b52602bbaa51afa9bb5cdf59239cf0d2bea9261059892610c3d575b506040519081529081906020820190565b806105df610c4a92610375565b38610c2c565b81610c6692903d106105c6576105b7818361038e565b503880610b98565b610b89919350610c8b8391823d841161097357610961818361038e565b939150610b3d565b80fd5b3461011d57600036600319011261011d5760005460405160089190911c6001600160a01b03168152602090f35b15610cca57565b60405162461bcd60e51b815260206004820152600f60248201526e4f6e6c7920676f7665726e616e636560881b6044820152606490fd5b634e487b7160e01b600052603260045260246000fd5b91908110156102215760051b0190565b15610d2e57565b60405162461bcd60e51b815260206004820152600a60248201526913db9b1e481859d95b9d60b21b6044820152606490fd5b6040513d6000823e3d90fd5b9081602091031261011d5751801515810361011d5790565b9081602091031261011d575190565b15610d9a57565b60405162461bcd60e51b81526020600482015260166024820152754e6f2062616c616e636520746f20776974686472617760501b6044820152606490fd5b91908201809211610de557565b634e487b7160e01b600052601160045260246000fd5b15610e0257565b60405162461bcd60e51b8152602060048201526012602482015271139bc81554d110c81d1bc819195c1bdcda5d60721b6044820152606490fd5b600091829182602083519301915af1604051903d6000833e15610e5c5750565b3d90fd5b916000928392602083519301915af1604051903d6000833e15610e5c5750565b60405163a9059cbb60e01b60208083019182526001600160a01b039490941660248301526044808301959095529381529092600091610ec060648261038e565b519082855af115610d60576000513d610f0a57506001600160a01b0381163b155b610ee85750565b604051635274afe760e01b81526001600160a01b039091166004820152602490fd5b60011415610ee156fea2646970667358221220b68a53d466e67cd923675d6ab9ed96cfddd49eee6c43bdd9c1e64baf2a8820db64736f6c63430008180033",
    "devdoc": {
        "errors": {
            "EnforcedPause()": [
                {
                    "details": "The operation failed because the contract is paused."
                }
            ],
            "ExpectedPause()": [
                {
                    "details": "The operation failed because the contract is not paused."
                }
            ],
            "SafeERC20FailedOperation(address)": [
                {
                    "details": "An operation with an ERC-20 token failed."
                }
            ]
        },
        "events": {
            "Paused(address)": {
                "details": "Emitted when the pause is triggered by `account`."
            },
            "Unpaused(address)": {
                "details": "Emitted when the pause is lifted by `account`."
            }
        },
        "kind": "dev",
        "methods": {
            "paused()": {
                "details": "Returns true if the contract is paused, and false otherwise."
            }
        },
        "version": 1
    },
    "userdoc": {
        "kind": "user",
        "methods": {},
        "version": 1
    },
    "storageLayout": {
        "storage": [
            {
                "astId": 615,
                "contract": "contracts/modules/CompoundV3USDC/CompoundV3StakingUSDCModules.sol:CompoundV3Module",
                "label": "_paused",
                "offset": 0,
                "slot": "0",
                "type": "t_bool"
            },
            {
                "astId": 742,
                "contract": "contracts/modules/CompoundV3USDC/CompoundV3StakingUSDCModules.sol:CompoundV3Module",
                "label": "agent",
                "offset": 1,
                "slot": "0",
                "type": "t_address"
            },
            {
                "astId": 744,
                "contract": "contracts/modules/CompoundV3USDC/CompoundV3StakingUSDCModules.sol:CompoundV3Module",
                "label": "governance",
                "offset": 0,
                "slot": "1",
                "type": "t_address"
            },
            {
                "astId": 955,
                "contract": "contracts/modules/CompoundV3USDC/CompoundV3StakingUSDCModules.sol:CompoundV3Module",
                "label": "usdc",
                "offset": 0,
                "slot": "2",
                "type": "t_address"
            },
            {
                "astId": 957,
                "contract": "contracts/modules/CompoundV3USDC/CompoundV3StakingUSDCModules.sol:CompoundV3Module",
                "label": "comet",
                "offset": 0,
                "slot": "3",
                "type": "t_address"
            }
        ],
        "types": {
            "t_address": {
                "encoding": "inplace",
                "label": "address",
                "numberOfBytes": "20"
            },
            "t_bool": {
                "encoding": "inplace",
                "label": "bool",
                "numberOfBytes": "1"
            }
        }
    }
}