{
  "address": "0xDc64a140Aa3E981100a9becA4E685f962f0cF6C9",
  "abi": [
    {
      "inputs": [
        {
          "internalType": "address",
          "name": "_usdc",
          "type": "address"
        },
        {
          "internalType": "address",
          "name": "_agent",
          "type": "address"
        },
        {
          "internalType": "address",
          "name": "_governance",
          "type": "address"
        }
      ],
      "stateMutability": "nonpayable",
      "type": "constructor"
    },
    {
      "inputs": [],
      "name": "EnforcedPause",
      "type": "error"
    },
    {
      "inputs": [],
      "name": "ExpectedPause",
      "type": "error"
    },
    {
      "anonymous": false,
      "inputs": [
        {
          "indexed": true,
          "internalType": "address",
          "name": "newAgent",
          "type": "address"
        }
      ],
      "name": "AgentChanged",
      "type": "event"
    },
    {
      "anonymous": false,
      "inputs": [
        {
          "indexed": true,
          "internalType": "address",
          "name": "newGovernment",
          "type": "address"
        }
      ],
      "name": "GovernmentChanged",
      "type": "event"
    },
    {
      "anonymous": false,
      "inputs": [
        {
          "indexed": false,
          "internalType": "address",
          "name": "account",
          "type": "address"
        }
      ],
      "name": "Paused",
      "type": "event"
    },
    {
      "anonymous": false,
      "inputs": [],
      "name": "TreasuryTransferred",
      "type": "event"
    },
    {
      "anonymous": false,
      "inputs": [
        {
          "indexed": false,
          "internalType": "address",
          "name": "account",
          "type": "address"
        }
      ],
      "name": "Unpaused",
      "type": "event"
    },
    {
      "inputs": [
        {
          "internalType": "address",
          "name": "",
          "type": "address"
        }
      ],
      "name": "_modules",
      "outputs": [
        {
          "internalType": "bool",
          "name": "",
          "type": "bool"
        }
      ],
      "stateMutability": "view",
      "type": "function"
    },
    {
      "inputs": [],
      "name": "agent",
      "outputs": [
        {
          "internalType": "address",
          "name": "",
          "type": "address"
        }
      ],
      "stateMutability": "view",
      "type": "function"
    },
    {
      "inputs": [
        {
          "internalType": "address",
          "name": "newGovernment",
          "type": "address"
        }
      ],
      "name": "changeGovernment",
      "outputs": [],
      "stateMutability": "nonpayable",
      "type": "function"
    },
    {
      "inputs": [
        {
          "internalType": "address",
          "name": "module",
          "type": "address"
        }
      ],
      "name": "disableModule",
      "outputs": [],
      "stateMutability": "nonpayable",
      "type": "function"
    },
    {
      "inputs": [
        {
          "internalType": "address",
          "name": "module",
          "type": "address"
        }
      ],
      "name": "enableModule",
      "outputs": [],
      "stateMutability": "nonpayable",
      "type": "function"
    },
    {
      "inputs": [],
      "name": "feeUsedForBridge",
      "outputs": [
        {
          "internalType": "uint256",
          "name": "",
          "type": "uint256"
        }
      ],
      "stateMutability": "view",
      "type": "function"
    },
    {
      "inputs": [
        {
          "internalType": "address[]",
          "name": "target",
          "type": "address[]"
        },
        {
          "internalType": "uint256[]",
          "name": "value",
          "type": "uint256[]"
        },
        {
          "internalType": "bytes[]",
          "name": "data",
          "type": "bytes[]"
        }
      ],
      "name": "gorvermentExec",
      "outputs": [],
      "stateMutability": "nonpayable",
      "type": "function"
    },
    {
      "inputs": [],
      "name": "governance",
      "outputs": [
        {
          "internalType": "address",
          "name": "",
          "type": "address"
        }
      ],
      "stateMutability": "view",
      "type": "function"
    },
    {
      "inputs": [],
      "name": "pause",
      "outputs": [],
      "stateMutability": "nonpayable",
      "type": "function"
    },
    {
      "inputs": [],
      "name": "paused",
      "outputs": [
        {
          "internalType": "bool",
          "name": "",
          "type": "bool"
        }
      ],
      "stateMutability": "view",
      "type": "function"
    },
    {
      "inputs": [],
      "name": "unpause",
      "outputs": [],
      "stateMutability": "nonpayable",
      "type": "function"
    },
    {
      "inputs": [],
      "name": "usdc",
      "outputs": [
        {
          "internalType": "address",
          "name": "",
          "type": "address"
        }
      ],
      "stateMutability": "view",
      "type": "function"
    },
    {
      "inputs": [
        {
          "internalType": "address",
          "name": "moduleOut",
          "type": "address"
        },
        {
          "internalType": "bytes",
          "name": "dataOut",
          "type": "bytes"
        }
      ],
      "name": "withdraw",
      "outputs": [],
      "stateMutability": "nonpayable",
      "type": "function"
    },
    {
      "inputs": [
        {
          "internalType": "uint256",
          "name": "amount",
          "type": "uint256"
        },
        {
          "internalType": "bytes",
          "name": "data",
          "type": "bytes"
        },
        {
          "internalType": "address",
          "name": "modules",
          "type": "address"
        },
        {
          "internalType": "address",
          "name": "allowanceTo",
          "type": "address"
        },
        {
          "internalType": "address",
          "name": "txnTo",
          "type": "address"
        },
        {
          "internalType": "bytes",
          "name": "txnData",
          "type": "bytes"
        }
      ],
      "name": "withdrawAndBridge",
      "outputs": [],
      "stateMutability": "nonpayable",
      "type": "function"
    }
  ],
  "transactionHash": "0x247c123aee59bddf8c7601a656aa1ffabb43188b12fbd69162bd7ff42ef9311f",
  "args": [
    "0x5FbDB2315678afecb367f032d93F642f64180aa3",
    "0x70997970C51812dc3A010C7d01b50e0d17dc79C8",
    "0x3C44CdDdB6a900fa2b585dd299e03d12FA4293BC"
  ],
  "numDeployments": 1,
  "solcInputHash": "bf2c4a79c2827309c138c4c497944044",
  "bytecode": "0x6080346100c157601f610bf638819003918201601f19168301916001600160401b038311848410176100c6578084926060946040528339810103126100c157610047816100dc565b906100606040610059602084016100dc565b92016100dc565b60008054600280546001600160a01b039687166001600160a01b031991821617909155610100600160a81b0360089590951b949094166001600160a81b031990911617905560018054919093169116179055604051610b0590816100f18239f35b600080fd5b634e487b7160e01b600052604160045260246000fd5b51906001600160a01b03821682036100c15756fe6080604052600436101561001257600080fd5b60003560e01c80633e413bee146100f75780633f4ba83a146100f25780634bb78b14146100ed578063500e5b9a146100e85780635aa6e675146100e35780635b58a289146100de5780635c975abb146100d9578063610b5925146100d45780636844a2e9146100cf5780638456cb59146100ca578063a95f5246146100c5578063aaf1793f146100c0578063bf95df23146100bb5763f5ff5c76146100b657600080fd5b610899565b610857565b6106bf565b61066f565b610608565b610540565b6104ed565b6104ca565b6103c6565b61036c565b61034e565b610276565b610135565b61010c565b600091031261010757565b600080fd5b34610107576000366003190112610107576002546040516001600160a01b039091168152602090f35b34610107576000806003193601126101ac5761015c60018060a01b036001541633146108c6565b805460ff81161561019a5760ff191681557f5db9ee0a495bf2e6ff9c91a7834c1ba4fdd244a5e8aa4e537bd38aeae4b073aa6020604051338152a180f35b604051638dfc202b60e01b8152600490fd5b80fd5b6001600160a01b0381160361010757565b634e487b7160e01b600052604160045260246000fd5b67ffffffffffffffff81116101ea57604052565b6101c0565b90601f8019910116810190811067ffffffffffffffff8211176101ea57604052565b92919267ffffffffffffffff82116101ea576040519161023b601f8201601f1916602001846101ef565b829481845281830111610107578281602093846000960137010152565b9080601f830112156101075781602061027393359101610211565b90565b3461010757604036600319011261010757600435610293816101af565b60243567ffffffffffffffff8111610107576102b3903690600401610258565b9060018060a01b039160009283926102d282855460081c163314610921565b6102da610a6d565b169081835260036020526102f460ff604085205416610977565b813b1561034a57829161031d9160405194858094819363025a3c9960e21b8352600483016109fb565b03925af180156103455761032f575080f35b8061033c610342926101d6565b806100fc565b80f35b610a0c565b5050fd5b34610107576000366003190112610107576020600454604051908152f35b34610107576000366003190112610107576001546040516001600160a01b039091168152602090f35b9181601f840112156101075782359167ffffffffffffffff8311610107576020808501948460051b01011161010757565b346101075760603660031901126101075767ffffffffffffffff600435818111610107576103f8903690600401610395565b909160243581811161010757610412903690600401610395565b926044358381116101075761042b903690600401610395565b9160019661044460018060a01b036001541633146108c6565b60005b82811061045057005b61045b818484610a2e565b3590610466826101af565b610471818a89610a2e565b35868210156104c5578160051b860135601e1987360301811215610107578601928335938a851161010757602001918436038313610107576104b96104bf938e963691610211565b91610aaf565b01610447565b610a18565b3461010757600036600319011261010757602060ff600054166040519015158152f35b346101075760203660031901126101075760043561050a816101af565b6001546001600160a01b03919061052490831633146108c6565b166000908152600360205260409020805460ff19166001179055005b346101075760203660031901126101075760043561055d816101af565b600154906001600160a01b039061057733838516146108c6565b169081156105b5576001600160a01b03191681176001557f813b5b48dc77e029c5050c0089ef9b94784875d59ff3300cabf4ef9005247df9600080a2005b60405162461bcd60e51b815260206004820152602560248201527f4e657720676f7665726e6d656e742063616e6e6f74206265207a65726f206164604482015264647265737360d81b6064820152608490fd5b34610107576000806003193601126101ac5761062f60018060a01b036001541633146108c6565b610637610a6d565b600160ff198254161781557f62e78cea01bee320cd4e420270b5ea74000d11b0c9f74754ebdbfc544b05a2586020604051338152a180f35b346101075760203660031901126101075760043561068c816101af565b6001546001600160a01b0391906106a690831633146108c6565b166000908152600360205260409020805460ff19169055005b346101075760c03660031901126101075760043567ffffffffffffffff602435818111610107576106f4903690600401610258565b9160443591610702836101af565b60643561070e816101af565b6084359161071b836101af565b60a43590811161010757610733903690600401610258565b9260018060a01b0395600096879661075282895460081c163314610921565b61075a610a6d565b1690813b156108535786916107869160405198898094819363030ba25d60e01b83528860048401610a3e565b03925af1918215610345576107f795602093610840575b506002546107c1906107b5906001600160a01b031681565b6001600160a01b031690565b60405163095ea7b360e01b81526001600160a01b0390921660048301526024820192909252948591908290889082906044820190565b03925af19283156103455761034293610811575b50610a8b565b6108329060203d602011610839575b61082a81836101ef565b810190610a55565b503861080b565b503d610820565b8061033c61084d926101d6565b3861079d565b8680fd5b3461010757602036600319011261010757600435610874816101af565b60018060a01b03166000526003602052602060ff604060002054166040519015158152f35b346101075760003660031901126101075760005460405160089190911c6001600160a01b03168152602090f35b156108cd57565b60405162461bcd60e51b815260206004820152602660248201527f4f6e6c7920676f7665726e616e63652063616e2063616c6c20746869732066756044820152653731ba34b7b760d11b6064820152608490fd5b1561092857565b60405162461bcd60e51b815260206004820152602160248201527f4f6e6c79206167656e742063616e2063616c6c20746869732066756e6374696f6044820152603760f91b6064820152608490fd5b1561097e57565b60405162461bcd60e51b8152602060048201526015602482015274135bd91d5b19481b9bdd081c9959da5cdd195c9959605a1b6044820152606490fd5b919082519283825260005b8481106109e7575050826000602080949584010152601f8019910116010190565b6020818301810151848301820152016109c6565b9060206102739281815201906109bb565b6040513d6000823e3d90fd5b634e487b7160e01b600052603260045260246000fd5b91908110156104c55760051b0190565b6040906102739392815281602082015201906109bb565b90816020910312610107575180151581036101075790565b60ff60005416610a7957565b60405163d93c066560e01b8152600490fd5b600091829182602083519301915af1604051903d6000833e15610aab5750565b3d90fd5b916000928392602083519301915af1604051903d6000833e15610aab575056fea26469706673582212206cd56fc65ee4602f98fdee18eb858f6f0e084983e013b34d7edb54b795c7ac4764736f6c63430008180033",
  "devdoc": {
    "errors": {
      "EnforcedPause()": [
        {
          "details": "The operation failed because the contract is paused."
        }
      ],
      "ExpectedPause()": [
        {
          "details": "The operation failed because the contract is not paused."
        }
      ]
    },
    "events": {
      "Paused(address)": {
        "details": "Emitted when the pause is triggered by `account`."
      },
      "Unpaused(address)": {
        "details": "Emitted when the pause is lifted by `account`."
      }
    },
    "kind": "dev",
    "methods": {
      "paused()": {
        "details": "Returns true if the contract is paused, and false otherwise."
      }
    },
    "version": 1
  },
  "userdoc": {
    "kind": "user",
    "methods": {},
    "version": 1
  },
  "storageLayout": {
    "storage": [
      {
        "astId": 615,
        "contract": "contracts/core/EVMTreasury.sol:EVMTreasury",
        "label": "_paused",
        "offset": 0,
        "slot": "0",
        "type": "t_bool"
      },
      {
        "astId": 759,
        "contract": "contracts/core/EVMTreasury.sol:EVMTreasury",
        "label": "agent",
        "offset": 1,
        "slot": "0",
        "type": "t_address"
      },
      {
        "astId": 761,
        "contract": "contracts/core/EVMTreasury.sol:EVMTreasury",
        "label": "governance",
        "offset": 0,
        "slot": "1",
        "type": "t_address"
      },
      {
        "astId": 763,
        "contract": "contracts/core/EVMTreasury.sol:EVMTreasury",
        "label": "usdc",
        "offset": 0,
        "slot": "2",
        "type": "t_address"
      },
      {
        "astId": 767,
        "contract": "contracts/core/EVMTreasury.sol:EVMTreasury",
        "label": "_modules",
        "offset": 0,
        "slot": "3",
        "type": "t_mapping(t_address,t_bool)"
      },
      {
        "astId": 769,
        "contract": "contracts/core/EVMTreasury.sol:EVMTreasury",
        "label": "feeUsedForBridge",
        "offset": 0,
        "slot": "4",
        "type": "t_uint256"
      }
    ],
    "types": {
      "t_address": {
        "encoding": "inplace",
        "label": "address",
        "numberOfBytes": "20"
      },
      "t_bool": {
        "encoding": "inplace",
        "label": "bool",
        "numberOfBytes": "1"
      },
      "t_mapping(t_address,t_bool)": {
        "encoding": "mapping",
        "key": "t_address",
        "label": "mapping(address => bool)",
        "numberOfBytes": "32",
        "value": "t_bool"
      },
      "t_uint256": {
        "encoding": "inplace",
        "label": "uint256",
        "numberOfBytes": "32"
      }
    }
  }
}