{
  "address": "0x7Ca8A8e59655c94a8d35f7335C1305B92b72A2fd",
  "abi": [
    {
      "inputs": [
        {
          "internalType": "address",
          "name": "_governance",
          "type": "address"
        },
        {
          "internalType": "address",
          "name": "_agent",
          "type": "address"
        },
        {
          "internalType": "address",
          "name": "_usdc",
          "type": "address"
        }
      ],
      "stateMutability": "nonpayable",
      "type": "constructor"
    },
    {
      "inputs": [
        {
          "internalType": "address",
          "name": "token",
          "type": "address"
        }
      ],
      "name": "SafeERC20FailedOperation",
      "type": "error"
    },
    {
      "inputs": [],
      "name": "agent",
      "outputs": [
        {
          "internalType": "address",
          "name": "",
          "type": "address"
        }
      ],
      "stateMutability": "view",
      "type": "function"
    },
    {
      "inputs": [
        {
          "internalType": "address",
          "name": "_agent",
          "type": "address"
        }
      ],
      "name": "changeAgent",
      "outputs": [],
      "stateMutability": "nonpayable",
      "type": "function"
    },
    {
      "inputs": [
        {
          "internalType": "address",
          "name": "_governance",
          "type": "address"
        }
      ],
      "name": "changeGovernance",
      "outputs": [],
      "stateMutability": "nonpayable",
      "type": "function"
    },
    {
      "inputs": [
        {
          "internalType": "bytes32",
          "name": "",
          "type": "bytes32"
        }
      ],
      "name": "feeClaimed",
      "outputs": [
        {
          "internalType": "bool",
          "name": "",
          "type": "bool"
        }
      ],
      "stateMutability": "view",
      "type": "function"
    },
    {
      "inputs": [
        {
          "internalType": "bytes32",
          "name": "txnHash",
          "type": "bytes32"
        },
        {
          "internalType": "address",
          "name": "to",
          "type": "address"
        },
        {
          "internalType": "uint256",
          "name": "amount",
          "type": "uint256"
        }
      ],
      "name": "fee_compensation",
      "outputs": [],
      "stateMutability": "nonpayable",
      "type": "function"
    },
    {
      "inputs": [],
      "name": "governance",
      "outputs": [
        {
          "internalType": "address",
          "name": "",
          "type": "address"
        }
      ],
      "stateMutability": "view",
      "type": "function"
    },
    {
      "inputs": [],
      "name": "treasury",
      "outputs": [
        {
          "internalType": "address",
          "name": "",
          "type": "address"
        }
      ],
      "stateMutability": "view",
      "type": "function"
    },
    {
      "inputs": [],
      "name": "usdc",
      "outputs": [
        {
          "internalType": "address",
          "name": "",
          "type": "address"
        }
      ],
      "stateMutability": "view",
      "type": "function"
    },
    {
      "inputs": [
        {
          "internalType": "address",
          "name": "token",
          "type": "address"
        },
        {
          "internalType": "address",
          "name": "to",
          "type": "address"
        },
        {
          "internalType": "uint256",
          "name": "amount",
          "type": "uint256"
        }
      ],
      "name": "withdraw",
      "outputs": [],
      "stateMutability": "nonpayable",
      "type": "function"
    }
  ],
  "transactionHash": "0x64aa414afb7e4ffacb44a9f6171217ef30968714ba5eb06d02e9763734631fad",
  "args": [
    "0xFC71158cFEBA0Fe7244E6Ab1B2D47f025AAC46e4",
    "0xc378E3e2304476bf4c2fBf3204535236F7628B7A",
    "0x97eec1c29f745dc7c267f90292aa663d997a601d"
  ],
  "numDeployments": 1,
  "solcInputHash": "be9c6641e15ac2ec7385c1c5631201fb",
  "bytecode": "0x6080346100a057601f61059d38819003918201601f19168301916001600160401b038311848410176100a5578084926060946040528339810103126100a057610047816100bb565b906100606040610059602084016100bb565b92016100bb565b60018060a01b0380928160018060a01b0319951685600254161760025516836003541617600355169060005416176000556040516104cd90816100d08239f35b600080fd5b634e487b7160e01b600052604160045260246000fd5b51906001600160a01b03821682036100a05756fe608060408181526004918236101561001657600080fd5b600092833560e01c9182633e413bee146102d95750816357f032e7146102895781635aa6e6751461026057816361d027b31461023757816399572d6f146101e95781639d85a372146101b9578163d9caed121461015f578163e180f6b6146100b3575063f5ff5c761461008857600080fd5b346100af57816003193601126100af5760035490516001600160a01b039091168152602090f35b5080fd5b839150346100af5760603660031901126100af578035906100d2610318565b9060018060a01b03926100ea84600354163314610389565b8085528160205260ff8686205416610124578452602052928220805460ff19166001179055815491926101219260443592166103df565b80f35b855162461bcd60e51b81526020818401526015602482015274151e1b881a185cda081a5cc81b9bdd081d985b1a59605a1b6044820152606490fd5b83346101b65760603660031901126101b65761012161017c6102fd565b610184610318565b6002546001600160a01b039061019d908216331461032e565b6101ac81600354163314610389565b60443592166103df565b80fd5b9050346101e55760203660031901126101e557816020938260ff93358252855220541690519015158152f35b8280fd5b83346101b65760203660031901126101b6576102036102fd565b600254906001600160a01b039061021d338385161461032e565b16906bffffffffffffffffffffffff60a01b161760025580f35b5050346100af57816003193601126100af5760015490516001600160a01b039091168152602090f35b5050346100af57816003193601126100af5760025490516001600160a01b039091168152602090f35b83346101b65760203660031901126101b6576102a36102fd565b6002546001600160a01b0391906102bd908316331461032e565b166bffffffffffffffffffffffff60a01b600354161760035580f35b8490346100af57816003193601126100af5790546001600160a01b03168152602090f35b600435906001600160a01b038216820361031357565b600080fd5b602435906001600160a01b038216820361031357565b1561033557565b60405162461bcd60e51b815260206004820152602660248201527f4f6e6c7920676f7665726e616e63652063616e2063616c6c20746869732066756044820152653731ba34b7b760d11b6064820152608490fd5b1561039057565b60405162461bcd60e51b815260206004820152602160248201527f4f6e6c79206167656e742063616e2063616c6c20746869732066756e6374696f6044820152603760f91b6064820152608490fd5b60405163a9059cbb60e01b602082019081526001600160a01b0393841660248301526044808301959095529381529092608082019067ffffffffffffffff82118383101761048157602092600092604052519082865af115610475576000513d61046c57508082163b155b610452575050565b604051635274afe760e01b81529116600482015260249150fd5b6001141561044a565b6040513d6000823e3d90fd5b634e487b7160e01b600052604160045260246000fdfea2646970667358221220ac6a4577686265b8001a5ca1221252d380440f09e222fdcbcdd8635f2a5284b464736f6c63430008180033",
  "devdoc": {
    "errors": {
      "SafeERC20FailedOperation(address)": [
        {
          "details": "An operation with an ERC-20 token failed."
        }
      ]
    },
    "kind": "dev",
    "methods": {},
    "version": 1
  },
  "userdoc": {
    "kind": "user",
    "methods": {},
    "version": 1
  },
  "storageLayout": {
    "storage": [
      {
        "astId": 598,
        "contract": "contracts/core/FundFee.sol:FundFee",
        "label": "usdc",
        "offset": 0,
        "slot": "0",
        "type": "t_address"
      },
      {
        "astId": 600,
        "contract": "contracts/core/FundFee.sol:FundFee",
        "label": "treasury",
        "offset": 0,
        "slot": "1",
        "type": "t_address"
      },
      {
        "astId": 602,
        "contract": "contracts/core/FundFee.sol:FundFee",
        "label": "governance",
        "offset": 0,
        "slot": "2",
        "type": "t_address"
      },
      {
        "astId": 604,
        "contract": "contracts/core/FundFee.sol:FundFee",
        "label": "agent",
        "offset": 0,
        "slot": "3",
        "type": "t_address"
      },
      {
        "astId": 608,
        "contract": "contracts/core/FundFee.sol:FundFee",
        "label": "feeClaimed",
        "offset": 0,
        "slot": "4",
        "type": "t_mapping(t_bytes32,t_bool)"
      }
    ],
    "types": {
      "t_address": {
        "encoding": "inplace",
        "label": "address",
        "numberOfBytes": "20"
      },
      "t_bool": {
        "encoding": "inplace",
        "label": "bool",
        "numberOfBytes": "1"
      },
      "t_bytes32": {
        "encoding": "inplace",
        "label": "bytes32",
        "numberOfBytes": "32"
      },
      "t_mapping(t_bytes32,t_bool)": {
        "encoding": "mapping",
        "key": "t_bytes32",
        "label": "mapping(bytes32 => bool)",
        "numberOfBytes": "32",
        "value": "t_bool"
      }
    }
  }
}